:100000000C9434000C9449000C9449000C94490061
:100010000C9449000C9449000C9449000C9449003C
:100020000C9449000C9449000C9449000C9449002C
:100030000C9449000C9449000C9449000C9449001C
:100040000C9449000C9449000C9449000C9449000C
:100050000C9449000C9449000C9449000C944900FC
:100060000C9449000C94490011241FBECFEFD8E036
:10007000DEBFCDBF11E0A0E0B1E0E6E5F1E002C0F7
:1000800005900D92A830B107D9F70E9475000C9425
:10009000A9000C94000084B1876084B90895299A5E
:1000A000299808952A9A81E0982F9A95F1F72A982D
:1000B0008A95F1F7089590E087FF02C0289A01C061
:1000C0002898299A29989F5F983011F0880FF4CFCB
:1000D0000E945200089520E040E050E0CA010197DC
:1000E000F1F72F5F2E31D1F70895CF92DF92EF9283
:1000F000FF921F93DF93CF93CDB7DEB728970FB64C
:10010000F894DEBF0FBECDBFDE011196E0E0F1E056
:1001100088E001900D928150E1F784B1876084B945
:1001200010E06E010894C11CD11CEE24FF24F601DE
:10013000E10FF11D80810E945B0020E0C701019763
:10014000F1F72F5F2E31D1F71F5F183080F310E0E9
:06015000EECFF894FFCF92
:0801560081C3E7FF7E3C1800A5
:00000001FF
